{
  "_format": "hh-sol-artifact-1",
  "contractName": "VotingSystem",
  "sourceName": "contracts/VotingSystem.sol",
  "abi": [
    {
      "inputs": [],
      "stateMutability": "nonpayable",
      "type": "constructor"
    },
    {
      "inputs": [
        {
          "internalType": "address",
          "name": "caller",
          "type": "address"
        }
      ],
      "name": "NotOwner",
      "type": "error"
    },
    {
      "anonymous": false,
      "inputs": [
        {
          "indexed": false,
          "internalType": "address",
          "name": "sender",
          "type": "address"
        },
        {
          "indexed": false,
          "internalType": "uint256",
          "name": "amount",
          "type": "uint256"
        }
      ],
      "name": "EtherReceived",
      "type": "event"
    },
    {
      "anonymous": false,
      "inputs": [
        {
          "indexed": false,
          "internalType": "address",
          "name": "sender",
          "type": "address"
        },
        {
          "indexed": false,
          "internalType": "uint256",
          "name": "amount",
          "type": "uint256"
        },
        {
          "indexed": false,
          "internalType": "bytes",
          "name": "data",
          "type": "bytes"
        }
      ],
      "name": "FallbackCalled",
      "type": "event"
    },
    {
      "anonymous": false,
      "inputs": [
        {
          "indexed": false,
          "internalType": "address",
          "name": "voter",
          "type": "address"
        },
        {
          "indexed": false,
          "internalType": "uint256",
          "name": "candidateId",
          "type": "uint256"
        }
      ],
      "name": "VoteCasted",
      "type": "event"
    },
    {
      "stateMutability": "payable",
      "type": "fallback"
    },
    {
      "inputs": [],
      "name": "OwnerOnlyAction",
      "outputs": [],
      "stateMutability": "view",
      "type": "function"
    },
    {
      "inputs": [
        {
          "internalType": "string",
          "name": "_name",
          "type": "string"
        }
      ],
      "name": "addCandidate",
      "outputs": [],
      "stateMutability": "nonpayable",
      "type": "function"
    },
    {
      "inputs": [
        {
          "internalType": "uint256",
          "name": "",
          "type": "uint256"
        }
      ],
      "name": "candidates",
      "outputs": [
        {
          "internalType": "uint256",
          "name": "id",
          "type": "uint256"
        },
        {
          "internalType": "string",
          "name": "name",
          "type": "string"
        },
        {
          "internalType": "uint256",
          "name": "voteCount",
          "type": "uint256"
        }
      ],
      "stateMutability": "view",
      "type": "function"
    },
    {
      "inputs": [],
      "name": "candidatesCount",
      "outputs": [
        {
          "internalType": "uint256",
          "name": "",
          "type": "uint256"
        }
      ],
      "stateMutability": "view",
      "type": "function"
    },
    {
      "inputs": [],
      "name": "getContractBalance",
      "outputs": [
        {
          "internalType": "uint256",
          "name": "",
          "type": "uint256"
        }
      ],
      "stateMutability": "view",
      "type": "function"
    },
    {
      "inputs": [
        {
          "internalType": "address",
          "name": "_voter",
          "type": "address"
        }
      ],
      "name": "hasvoted",
      "outputs": [
        {
          "internalType": "bool",
          "name": "",
          "type": "bool"
        }
      ],
      "stateMutability": "view",
      "type": "function"
    },
    {
      "inputs": [],
      "name": "owner",
      "outputs": [
        {
          "internalType": "address",
          "name": "",
          "type": "address"
        }
      ],
      "stateMutability": "view",
      "type": "function"
    },
    {
      "inputs": [
        {
          "internalType": "uint256",
          "name": "_candidateId",
          "type": "uint256"
        }
      ],
      "name": "vote",
      "outputs": [],
      "stateMutability": "nonpayable",
      "type": "function"
    },
    {
      "inputs": [
        {
          "internalType": "address",
          "name": "",
          "type": "address"
        }
      ],
      "name": "voters",
      "outputs": [
        {
          "internalType": "bool",
          "name": "hasVoted",
          "type": "bool"
        },
        {
          "internalType": "uint256",
          "name": "vote",
          "type": "uint256"
        }
      ],
      "stateMutability": "view",
      "type": "function"
    },
    {
      "stateMutability": "payable",
      "type": "receive"
    }
  ],
  "bytecode": "0x6080604052348015600f57600080fd5b50600380546001600160a01b03191633179055610878806100316000396000f3fe60806040526004361061008a5760003560e01c8063462e91ec11610059578063462e91ec146101c35780636f9fb98a146101e35780638da5cb5b146101f6578063a3ec138d1461022e578063e9d26a601461027f576100ca565b80630121b93f146101005780632b499cab146101225780632d35a8a2146101705780633477ee2e14610194576100ca565b366100ca57604080513381523460208201527f1e57e3bb474320be3d2c77138f75b7c3941292d647f5f9634e33a8e94e0e069b91015b60405180910390a1005b7faca09dd456ca888dccf8cc966e382e6e3042bb7e4d2d7815015f844edeafce4233346000366040516100c09493929190610517565b34801561010c57600080fd5b5061012061011b36600461055f565b610294565b005b34801561012e57600080fd5b5061015b61013d366004610578565b6001600160a01b031660009081526020819052604090205460ff1690565b60405190151581526020015b60405180910390f35b34801561017c57600080fd5b5061018660025481565b604051908152602001610167565b3480156101a057600080fd5b506101b46101af36600461055f565b6103d4565b604051610167939291906105a8565b3480156101cf57600080fd5b506101206101de36600461061a565b61047e565b3480156101ef57600080fd5b5047610186565b34801561020257600080fd5b50600354610216906001600160a01b031681565b6040516001600160a01b039091168152602001610167565b34801561023a57600080fd5b50610268610249366004610578565b6000602081905290815260409020805460019091015460ff9091169082565b604080519215158352602083019190915201610167565b34801561028b57600080fd5b506101206104e8565b3360009081526020819052604090205460ff16156102f25760405162461bcd60e51b8152602060048201526016602482015275165bdd481a185d9948185b1c9958591e481d9bdd195960521b60448201526064015b60405180910390fd5b60008111801561030457506002548111155b6103445760405162461bcd60e51b8152602060048201526011602482015270496e76616c69642063616e64696461746560781b60448201526064016102e9565b604080518082018252600180825260208083018581523360009081528083528581209451855460ff191690151517855590519383019390935584835252908120600201805491610393836106d3565b909155505060408051338152602081018390527fd0e6c39f2e086dc49f1524b47725526a56945cd1ff661f37976f1725a1e56986910160405180910390a150565b6001602081905260009182526040909120805491810180546103f5906106fa565b80601f0160208091040260200160405190810160405280929190818152602001828054610421906106fa565b801561046e5780601f106104435761010080835404028352916020019161046e565b820191906000526020600020905b81548152906001019060200180831161045157829003601f168201915b5050505050908060020154905083565b6002805490600061048e836106d3565b9091555050604080516060810182526002548082526020808301858152600084860181905292835260019182905293909120825181559251919291908201906104d79082610783565b506040820151816002015590505050565b6003546001600160a01b031633146105155760405163245aecd360e01b81523360048201526024016102e9565b565b6001600160a01b0385168152602081018490526060604082018190528101829052818360808301376000818301608090810191909152601f909201601f191601019392505050565b60006020828403121561057157600080fd5b5035919050565b60006020828403121561058a57600080fd5b81356001600160a01b03811681146105a157600080fd5b9392505050565b838152606060208201526000835180606084015260005b818110156105dc57602081870181015160808684010152016105bf565b506000608082850101526080601f19601f830116840101915050826040830152949350505050565b634e487b7160e01b600052604160045260246000fd5b60006020828403121561062c57600080fd5b813567ffffffffffffffff81111561064357600080fd5b8201601f8101841361065457600080fd5b803567ffffffffffffffff81111561066e5761066e610604565b604051601f8201601f19908116603f0116810167ffffffffffffffff8111828210171561069d5761069d610604565b6040528181528282016020018610156106b557600080fd5b81602084016020830137600091810160200191909152949350505050565b6000600182016106f357634e487b7160e01b600052601160045260246000fd5b5060010190565b600181811c9082168061070e57607f821691505b60208210810361072e57634e487b7160e01b600052602260045260246000fd5b50919050565b601f82111561077e57806000526020600020601f840160051c8101602085101561075b5750805b601f840160051c820191505b8181101561077b5760008155600101610767565b50505b505050565b815167ffffffffffffffff81111561079d5761079d610604565b6107b1816107ab84546106fa565b84610734565b6020601f8211600181146107e557600083156107cd5750848201515b600019600385901b1c1916600184901b17845561077b565b600084815260208120601f198516915b8281101561081557878501518255602094850194600190920191016107f5565b50848210156108335786840151600019600387901b60f8161c191681555b50505050600190811b0190555056fea2646970667358221220f8388ef7d57d9cbe49db33eeb7cd6443b85e1bbd89b55bfd92b60c424fdfe8ef64736f6c634300081c0033",
  "linkReferences": {},
  "deployedLinkReferences": {}
}